{
  "contractName": "CreateElection",
  "abi": [
    {
      "constant": true,
      "inputs": [
        {
          "name": "",
          "type": "uint256"
        }
      ],
      "name": "deployedElections",
      "outputs": [
        {
          "name": "",
          "type": "address"
        }
      ],
      "payable": false,
      "stateMutability": "view",
      "type": "function",
      "signature": "0xf18b4f8e"
    },
    {
      "constant": false,
      "inputs": [
        {
          "name": "_electionName",
          "type": "string"
        }
      ],
      "name": "createElection",
      "outputs": [],
      "payable": false,
      "stateMutability": "nonpayable",
      "type": "function",
      "signature": "0x15cf4a5f"
    },
    {
      "constant": true,
      "inputs": [],
      "name": "getCreatedElections",
      "outputs": [
        {
          "name": "",
          "type": "address[]"
        }
      ],
      "payable": false,
      "stateMutability": "view",
      "type": "function",
      "signature": "0x7c8369ca"
    }
  ],
  "bytecode": "0x608060405234801561001057600080fd5b50610cca806100206000396000f3fe608060405260043610610057576000357c0100000000000000000000000000000000000000000000000000000000900463ffffffff16806315cf4a5f1461005c5780637c8369ca14610124578063f18b4f8e14610190575b600080fd5b34801561006857600080fd5b506101226004803603602081101561007f57600080fd5b810190808035906020019064010000000081111561009c57600080fd5b8201836020820111156100ae57600080fd5b803590602001918460018302840111640100000000831117156100d057600080fd5b91908080601f016020809104026020016040519081016040528093929190818152602001838380828437600081840152601f19601f82011690508083019250505050505050919291929050505061020b565b005b34801561013057600080fd5b5061013961030e565b6040518080602001828103825283818151815260200191508051906020019060200280838360005b8381101561017c578082015181840152602081019050610161565b505050509050019250505060405180910390f35b34801561019c57600080fd5b506101c9600480360360208110156101b357600080fd5b810190808035906020019092919050505061039c565b604051808273ffffffffffffffffffffffffffffffffffffffff1673ffffffffffffffffffffffffffffffffffffffff16815260200191505060405180910390f35b6000816102166103da565b8080602001828103825283818151815260200191508051906020019080838360005b83811015610253578082015181840152602081019050610238565b50505050905090810190601f1680156102805780820380516001836020036101000a031916815260200191505b5092505050604051809103906000f0801580156102a1573d6000803e3d6000fd5b50905060008190806001815401808255809150509060018203906000526020600020016000909192909190916101000a81548173ffffffffffffffffffffffffffffffffffffffff021916908373ffffffffffffffffffffffffffffffffffffffff160217905550505050565b6060600080548060200260200160405190810160405280929190818152602001828054801561039257602002820191906000526020600020905b8160009054906101000a900473ffffffffffffffffffffffffffffffffffffffff1673ffffffffffffffffffffffffffffffffffffffff1681526020019060010190808311610348575b5050505050905090565b6000818154811015156103ab57fe5b906000526020600020016000915054906101000a900473ffffffffffffffffffffffffffffffffffffffff1681565b6040516108b4806103eb8339019056fe608060405234801561001057600080fd5b506040516108b43803806108b48339810180604052602081101561003357600080fd5b81019080805164010000000081111561004b57600080fd5b8281019050602081018481111561006157600080fd5b815185600182028301116401000000008211171561007e57600080fd5b5050929190505050806000908051906020019061009c9291906100a3565b5050610148565b828054600181600116156101000203166002900490600052602060002090601f016020900481019282601f106100e457805160ff1916838001178555610112565b82800160010185558215610112579182015b828111156101115782518255916020019190600101906100f6565b5b50905061011f9190610123565b5090565b61014591905b80821115610141576000816000905550600101610129565b5090565b90565b61075d806101576000396000f3fe608060405260043610610078576000357c0100000000000000000000000000000000000000000000000000000000900463ffffffff1680630121b93f1461007d5780632d35a8a2146100b85780633477ee2e146100e3578063462e91ec146101a557806349a2b6031461026d578063a3ec138d146102fd575b600080fd5b34801561008957600080fd5b506100b6600480360360208110156100a057600080fd5b8101908080359060200190929190505050610366565b005b3480156100c457600080fd5b506100cd610489565b6040518082815260200191505060405180910390f35b3480156100ef57600080fd5b5061011c6004803603602081101561010657600080fd5b810190808035906020019092919050505061048f565b6040518084815260200180602001838152602001828103825284818151815260200191508051906020019080838360005b8381101561016857808201518184015260208101905061014d565b50505050905090810190601f1680156101955780820380516001836020036101000a031916815260200191505b5094505050505060405180910390f35b3480156101b157600080fd5b5061026b600480360360208110156101c857600080fd5b81019080803590602001906401000000008111156101e557600080fd5b8201836020820111156101f757600080fd5b8035906020019184600183028401116401000000008311171561021957600080fd5b91908080601f016020809104026020016040519081016040528093929190818152602001838380828437600081840152601f19601f820116905080830192505050505050509192919290505050610551565b005b34801561027957600080fd5b506102826105ce565b6040518080602001828103825283818151815260200191508051906020019080838360005b838110156102c25780820151818401526020810190506102a7565b50505050905090810190601f1680156102ef5780820380516001836020036101000a031916815260200191505b509250505060405180910390f35b34801561030957600080fd5b5061034c6004803603602081101561032057600080fd5b81019080803573ffffffffffffffffffffffffffffffffffffffff16906020019092919050505061066c565b604051808215151515815260200191505060405180910390f35b600160003373ffffffffffffffffffffffffffffffffffffffff1673ffffffffffffffffffffffffffffffffffffffff16815260200190815260200160002060009054906101000a900460ff161515156103bf57600080fd5b6000811180156103d157506003548111155b15156103dc57600080fd5b60018060003373ffffffffffffffffffffffffffffffffffffffff1673ffffffffffffffffffffffffffffffffffffffff16815260200190815260200160002060006101000a81548160ff0219169083151502179055506002600082815260200190815260200160002060020160008154809291906001019190505550807ffff3c900d938d21d0990d786e819f29b8d05c1ef587b462b939609625b684b1660405160405180910390a250565b60035481565b6002602052806000526040600020600091509050806000015490806001018054600181600116156101000203166002900480601f0160208091040260200160405190810160405280929190818152602001828054600181600116156101000203166002900480156105415780601f1061051657610100808354040283529160200191610541565b820191906000526020600020905b81548152906001019060200180831161052457829003601f168201915b5050505050908060020154905083565b600360008154809291906001019190505550606060405190810160405280600354815260200182815260200160008152506002600060035481526020019081526020016000206000820151816000015560208201518160010190805190602001906105bd92919061068c565b506040820151816002015590505050565b60008054600181600116156101000203166002900480601f0160208091040260200160405190810160405280929190818152602001828054600181600116156101000203166002900480156106645780601f1061063957610100808354040283529160200191610664565b820191906000526020600020905b81548152906001019060200180831161064757829003601f168201915b505050505081565b60016020528060005260406000206000915054906101000a900460ff1681565b828054600181600116156101000203166002900490600052602060002090601f016020900481019282601f106106cd57805160ff19168380011785556106fb565b828001600101855582156106fb579182015b828111156106fa5782518255916020019190600101906106df565b5b509050610708919061070c565b5090565b61072e91905b8082111561072a576000816000905550600101610712565b5090565b9056fea165627a7a7230582047908bf3f8c0e1f8642f7749f11ea54571ce0d85e71b95e52e895f5b794bbd330029a165627a7a7230582067c98a90369f7b38f49ce51f5562a62dd00a881dc1e73924c34777ff9623b1010029",
  "source": "pragma solidity ^0.5.0;\r\n\r\nimport './election.sol';\r\n\r\ncontract CreateElection {\r\n\r\n    address[] public deployedElections;\r\n\r\n    function createElection(string memory _electionName) public {\r\n       Election newElection = new Election(_electionName);\r\n        deployedElections.push(address(newElection));\r\n    }\r\n    \r\n    function getCreatedElections() public view returns(address[] memory) {\r\n        return deployedElections;\r\n    }\r\n}",
  "sourcePath": "C:/Users/User/Downloads/Ethereum/Election/contracts/CreateElection.sol",
  "compiler": {
    "name": "solc",
    "version": "0.5.0+commit.1d4f565a.Emscripten.clang"
  },
  "schemaVersion": "3.0.6",
  "updatedAt": "2019-05-28T16:36:55.380Z",
  "devdoc": {
    "methods": {}
  },
  "userdoc": {
    "methods": {}
  }
}